:100000000C9470010C94B7010C94B7010C94CB02C2
:100010000C94B7010C94B7010C94B7010C94B70180
:100020000C94B7010C94B7010C94481A0C941A1B49
:100030000C94C3150C94B7010C94B7010C94B70140
:100040000C94B7010C94B7010C94B7010C94B70150
:100050000C94B7010C942B160C94B7010C94B701B7
:100060000C94B7010C94B7010C94B7010C94B70130
:100070000C94B7010C94B7010C94B7010C94B70120
:100080000C94B7010C94B7010C94B7010C94B70110
:100090000C94B9010C94B7010C94B7010C94B701FE
:1000A0000C94B7010C94B7010C94B7016F0C6F0C52
:1000B000A10CA10CF70DF70DF70DF70DEE0C870D48
:1000C000980D980D800E800E920E920E890E920E53
:1000D000920E920E800E800E8E0E920E920E8E0E4C
:1000E000871BAE1BA61CAE1BA61CFA1B1D1CA61C48
:1000F000741C831C290014001A0008001500170046
:1001000000002B6104001600070009680A000000C7
:10011000E1001D001B0006001900050000000000A2
:1001200000004C6491682C412A6100002D001300EE
:1001300012000C0018001C000000340033000F00F7
:100140000E000D780B000000E50038003700360087
:10015000100011000000000000004C64906828426C
:100160002A6100003A003B003C003D003E003F0099
:10017000000001001E001F002000210022000000DE
:1001800040004100420043004400450000000000E0
:100190000000010001000100010000002D0022020A
:1001A00025022E022E00010000000100270026007B
:1001B000250024002300000001003800370036002D
:1001C000010001000000000000000100010001002A
:1001D0000100000001001E021F0220022102220273
:1001E000000001000100010034023400350200006B
:1001F00001000100010031022F022F000000000069
:100200000000010001000100010000002D002E008F
:100210002E022502240223020000010031004F00BB
:100220005200510050000000010035002702260254
:100230003002300000000000000001000100010059
:10024000010000000403300000000E0363006C0096
:10025000610077003400340000000C037900660070
:1002600075006B00750000000403090409022200F8
:10027000010100A0FA0904000001030101000921A5
:10028000110100012240000705810308000A120144
:10029000100100000008EDFE6030010001020301C2
:1002A00005010906A101050719E029E71500250147
:1002B00095087501810295017508810105071900EE
:1002C00029FF150026FF009506750881000508190D
:1002D000012905950575019102950175039101C0EC
:1002E00011241FBECFEFDAE0DEBFCDBF04B603FEA0
:1002F00027C08091100290911102A0911202B0913A
:1003000013028730904BA740B04BD1F410921002EB
:1003100010921102109212021092130214BE84B7AE
:10032000877F84BF0FB6F894A8958091600088619C
:1003300080936000109260000FBEE0E0F8E3099542
:1003400011E0A0E0B1E0E2E6FAE302C005900D9210
:10035000A833B107D9F722E0A8E3B1E001C01D92AC
:10036000A031B207E1F70E948A170C942F1D0C945C
:1003700000001F920F920FB60F9211248F939F933C
:10038000EF93FF938091B900887F803869F038F44B
:100390008823C9F18036C9F51092380136C0883AF1
:1003A00009F1883BF9F031C080913801811111C009
:1003B0008091BB008093390180913901803120F018
:1003C0001092390180E001C081E091E09093380102
:1003D0001DC0E0913901F0E08091BB00E351FE4F78
:1003E000808308C0E0913901F0E0E351FE4F808145
:1003F0008093BB008091390190E001968F7099271E
:100400008093390102C01092BC0081E09091BC0041
:100410008295880F880F807C9568892B8093BC001B
:10042000FF91EF919F918F910F900FBE0F901F90B2
:1004300018958EE14A9B02C08150E1F74A9BFECF9E
:1004400008955A9880E28A95F1F75A9A0895FC0126
:100450002AE02A95F1F790E020E080E031E02617CD
:1004600079F040E14A95F1F7880F4A9B02C081601C
:10047000932700C0000040E14A95F1F72F5FEFCFCE
:1004800020E12A95F1F729B100C0000030E13A954A
:10049000F1F722FB222720F992272081920F9083E7
:1004A0000895EF92FF920F931F93CF93DF931F92C4
:1004B000CDB7DEB719828C017C01E60EF11C0E155A
:1004C0001F0559F00E94190268E0CE0101960E94B2
:1004D0002702F80181938F01F2CF81E09981911178
:1004E00080E00F90DF91CF911F910F91FF90EF90DF
:1004F000089590933C0180933B0160933A01529A96
:100500005A9A089590933C0180933B0160933A017D
:1005100052985A9AEA9AE9E6F0E080818F7C8083CB
:100520000895615091E001C0990F6A95EAF720E0C3
:1005300031E0992361F0492F482319F05A9A232773
:1005400001C05A9840E24A95F1F79695F2CF2223DE
:1005500011F05A9A01C05A9880E28A95F1F75A9898
:100560000895FF920F931F93CF93DF93EC018C01BB
:10057000060F111DC017D10741F0F9900E9421020A
:1005800068E08F2D0E949102F5CFDF91CF911F91EE
:100590000F91FF9008951F920F920FB60F921124A2
:1005A0000F931F932F933F934F935F936F937F937B
:1005B0008F939F93AF93BF93EF93FF93CF93DF936B
:1005C0001F92CDB7DEB719820E94190267E0CE01F3
:1005D00001960E942702382F369536953695932F2F
:1005E00096959570232F2570920F292F237096953D
:1005F00096958770920F891348C08981811145C0F3
:1006000080913A01831708F440C080E18A95F1F7A0
:100610005A9A529AA2E0AA95F1F700C000913B01C4
:1006200010913C01B8E03B9F000D111D11245A9818
:10063000F8016581662321F0868197810E94B102CD
:100640000E942102F0E1FA95F1F75A9852985A9ACD
:1006500080E18A95F1F7D80112966C911297662382
:1006600069F013968D919C9114970E945102D801C4
:10067000ED91FC91811105C082E004C0D801ED919B
:10068000FC9188E080830E9419020F90DF91CF9146
:10069000FF91EF91BF91AF919F918F917F916F915A
:1006A0005F914F913F912F911F910F910F900FBE2E
:1006B0000F901F9018950F931F93CF93DF93209166
:1006C0003A0130E0281739070CF471C09C0193E01F
:1006D000220F331F9A95E1F7C0913B01D0913C0165
:1006E000C20FD31FF894529A5A9845E04A95F1F7F1
:1006F0000000982F969595708570890F982F9370AC
:1007000086958695890F8901082B0E94210284E035
:100710008A95F1F700C067E0802F0E94910240E1C6
:100720004A95F1F752985A9A4A9902C000C0FCCFF4
:1007300087E090E04A9B0EC0019751F4529A5A9A72
:10074000E881F98181E08083789481E090E031C094
:1007500000C0F0CF6D81662381F08E819F810E9461
:10076000510281110AC0529A5A9AE881F98182E0B5
:100770008083789482E090E01CC00E94190280E29D
:100780008A95F1F75A98529A40E14A95F1F76A81B1
:10079000662321F08B819C810E94B1020E9421027C
:1007A000E881F9811082789480E090E002C084E0D2
:1007B00090E0DF91CF911F910F910895CF93DF9338
:1007C000A0E3B1E044E351E061E070E08D91E82FF7
:1007D000E295EF70F0E021A18F70EB0102C0CC0F29
:1007E000DD1F8A95E2F7CE019C2F9095922391A36D
:1007F00092A1892B82A34A175B0741F7DF91CF9122
:10080000089508950C9401040C9402040C940104BE
:100810008091E001836088608093E0010E94DE03A4
:10082000A9E2B1E041E050E08D91E82FE295EF7050
:10083000F0E021A18F70BA0102C0660F771F8A9580
:10084000E2F7CB01962F9095922391A392A1892B49
:1008500082A371E0A033B70739F7209A559A289AF6
:100860005D9AE5E4F1E0ADE3B1E011921D9281E023
:10087000ED34F807D1F70E94950580934D010C9453
:100880004A069F92AF92BF92CF92DF92EF92FF9271
:100890000F931F93CF93DF9380910101811103C0C8
:1008A000C4E0D0E002C0C0E0D0E0AE01435C5E4FE7
:1008B0007A0180E3C82E81E0D82E8A01AA24A3946D
:1008C000B12C25E0922EF4E3CF16F1E0DF0609F417
:1008D0004AC0F60181916F01E82FE295EF70F0E0D8
:1008E00021A18F70A50102C0440F551F8A95E2F720
:1008F000CA01922F982B91A392A18095892382A35C
:1009000050EA5A95F1F7E9E2F1E020E040E050E0EA
:100910003191A32FA295AF70B0E090968C9190E0AA
:100920003F7002C0959587953A95E2F780FD07C024
:10093000C501042E01C0880F0A94EAF702C080E0C6
:1009400090E0282B4F5F5F4F4730510509F7F801C2
:100950008081821719F02083909200010E94DE03AB
:100960000F5F1F4FB0CF809100018823B1F08150FD
:1009700080930001811103C0CB5BDE4F07C08FE97C
:100980009FE00197F1F700C0000007C0F7019191C7
:100990007F0199938F5F8430C9F781E0DF91CF9118
:1009A0001F910F91FF90EF90DF90CF90BF90AF908D
:1009B0009F900895CF93DF9320910101211103C0EF
:1009C000C0E0D0E002C0C4E0D0E00E94BF050097C4
:1009D00021F00297A1F4289812C0289ACB5BDE4F31
:1009E0008091580190915901A0915A01B0915B01F9
:1009F00088839983AA83BB8380E090E002C081E072
:100A000090E0DF91CF9108950E944104809101010F
:100A1000811103C0E4E0F0E002C0E0E0F0E0EB5B55
:100A2000FE4F20E030E080E0D901A85ABE4F4C9143
:100A30009191491381E09C932F5F3F4F2430310502
:100A400099F790915101890F809351010895CF93A7
:100A5000DF9380914D01882309F440C00E94410436
:100A600080910101811103C0C4E0D0E002C0C0E068
:100A7000D0E0CB5BDE4F44E050E0BE0184E591E086
:100A80000E94E01C488159816A817B814093540116
:100A90005093550160935601709357010E94DA04F8
:100AA000892BC1F05D9880914E018F5F80934E013C
:100AB000863070F180910101811103C0E0E0F0E027
:100AC00002C0E4E0F0E0EB5BFE4F10821182128284
:100AD00013821EC05D9A10924E011AC00E94040536
:100AE00080910101811103C080E090E002C084E0A8
:100AF00090E0FC01EB5BFE4F409154015091550199
:100B000060915601709157014083518362837383D2
:100B10000E94520681E0DF91CF910895E82FF0E026
:100B2000EB5BFE4F808108950895E8EDF0E0808151
:100B3000806180838AE18A95F1F700C08091D900B5
:100B4000817008950E949505809301010E9495058A
:100B5000882319F00E94B30502C00E94B905789459
:100B600008950C94A20563E070E082E091E00C949B
:100B7000790263E070E082E091E00C9482020F93CE
:100B80001F93CF93DF938C0190911B0180911A01E9
:100B9000981761F082E090E00E945B03EC01892BE2
:100BA00039F480911A0180931B0102C0C0E0D0E0AB
:100BB000012B49F480914F0190915001892B19F438
:100BC00080E090E002C081E090E00E945B03892B0E
:100BD00049F48091510180931A01109250011092B2
:100BE0004F0106C081E090E09093500180934F0147
:100BF000CE01DF91CF911F910F9108950C940206C1
:100C000081E0089581E0089508950C9404061F93EF
:100C1000CF93DF9300D000D01F92CDB7DEB74983CA
:100C20005A836B8320916F0189819A81211112C0AF
:100C3000662349F00E945313182F682F89819A81E7
:100C40000E94FC1203C00E942713182F69817A8129
:100C5000812F04C00E94531369817A810F900F90F5
:100C60000F900F900F90DF91CF911F910C94B006D1
:100C7000FC01408151816281738184810C9407065B
:100C8000CF93DF93EC010E943806BE01DF91CF9134
:100C90000C9405060E947814811102C00E94181558
:100CA0000C9404040C94060408950C94540681E0FA
:100CB00008950C945706CF93C82F0E9455068C2F89
:100CC0000E945906CF91089508950E946E0E0E94C9
:100CD00064062FEF84E39CE0215080409040E1F7D0
:100CE00000C000000C9451160F931F93CF93DF9315
:100CF000EC010E9438068C01BE010E94FE0588238B
:100D000049F1BE01C8010E94EC08882319F1BE0117
:100D1000C8010E942D098823E9F0BE01C8010E9484
:100D2000580A8823B9F08A81882369F001158CE577
:100D3000180731F00E3D1C4531F40E9418150AC009
:100D40000E94650607C0CE01DF91CF911F910F91E0
:100D50000C94000680E0DF91CF911F910F910895D0
:100D600028E3829FC0011124FC0127E0729FE00D5F
:100D7000F11D1124E60FF11DEE0FFF1FEC50FF4F88
:100D8000859194910895CF93DF930E94B0060E94BD
:100D9000A107EC01811523E5920798F5811542E53D
:100DA000940708F094C0C11580E2D807C0F4C115BB
:100DB00021E0D20708F0C1C0C53AD10548F4C430DB
:100DC000D10508F0BAC0C130D10509F4B6C0B3C02E
:100DD000CE01805E9109089708F4AFC0ACC0C11580
:100DE00041E5D40708F06EC0C11580E5D80708F0CA
:100DF0004DC0C11520E4D20708F49DC0DF70D06A51
:100E00009CC0811546E5940700F5C11585E5D80716
:100E100008F077C0C11524E5D20708F06DC0CE01F7
:100E20008370992721E030E002C0220F331F8A959A
:100E3000E2F78C2F8695869540E2849FC0011124AD
:100E4000E901C82BD92BDA6878C081154AE59407E7
:100E500078F4C11589E5D80708F05DC0C11528E50B
:100E6000D20708F468C0DC2FCC27C06FD06A65C0F9
:100E700090568115904208F05EC08D2F8F710E94B0
:100E80003508DD27D0628F71D82B57C0CE0174E0B2
:100E9000969587957A95E1F783709C2F937021E062
:100EA00030E002C0220F331F9A95E2F73C68382BDE
:100EB000CF70C695C69580E2C89FE0011124C22B71
:100EC000D32B3BC0DC2FCC27C16FD06A36C08370D8
:100ED000992721E030E002C0220F331F8A95E2F704
:100EE0008C2F8695869540E2849FC0011124E901EC
:100EF000C82BD92BDC6821C0DC2FCC27C46FD06A6B
:100F00001CC08C2F0E9435088F71C82FD0E0DC2FB9
:100F1000CC27D06212C08C2F8F700E94350894E0CD
:100F2000D695C7959A95E1F7CF70D0E0DC2FCC2706
:100F3000D069C82B02C0C0E0D0E0CE01DF91CF91D4
:100F400008958238910569F1B0F48133910509F46F
:100F50006DC048F48932910509F463C08A32910565
:100F600009F469C008958533910509F455C08933A2
:100F70009105B9F00895833E910569F138F4803EFA
:100F80009105B1F0823E910509F10895863E9105E3
:100F9000A9F1873E9105B9F1843E910509F064C03D
:100FA00023C02091010220FD4FC021FD4DC00895B6
:100FB0008091010280FD44C08091020280FF44C004
:100FC0008091010284FD42C083EE4DC080910102F8
:100FD00082FF38C0F5CF8091010282FD33C080913D
:100FE000020280FD31C0ECCF8091020281FF32C04D
:100FF0008091010284FD2AC087EE35C080910102F4
:1010000083FF26C0F5CF8091010283FD21C080912E
:10101000020281FD1FC0ECCF8091010285FD1CC042
:101020001DC08091010285FD19C016C0809101028A
:1010300086FD16C017C08091010286FD13C010C046
:1010400089E311C082EE0FC080EE0DC080E00BC0BE
:1010500086EE09C084EE07C089E205C085E303C0BF
:101060008AE201C081E390E008959091010292FF2D
:101070000DC0282F2871283019F4877F846006C09E
:10108000282F2471243011F48B7F886093FF0DC0CA
:10109000282F2871283119F4877E846106C0282FF3
:1010A0002471243111F48B7E88612091020220FF8B
:1010B0000DC0382F3871383019F4877F816006C031
:1010C000382F3171313011F48E7F886021FF0DC0CF
:1010D000282F2871283119F4877E816106C0282FB6
:1010E0002171213111F48E7E886194FD877E0895EF
:1010F0000F931F93CF93DF93C62FD42F122FFC0192
:1011000082818823C9F060935E010E94F515909357
:101110005D0180935C0180E28C0F883008F057C03D
:10112000C77081E001C0880FCA95EAF7DF91CF91BF
:101130001F910F910C942B0C80915E01681330C0AD
:1011400080915C0190915D010E940116883C91059F
:1011500038F500E20D0FCD17B9F080E28C0F883022
:1011600040F4C77081E001C0880FCA95EAF70E9479
:10117000320C083028F581E09D2F977001C0880F50
:101180009A95EAF70E942B0C812F0E94180C0830C8
:10119000F0F4D77081E001C0880FDA95EAF70AC051
:1011A00080E28C0F883098F4C77081E001C0880F0E
:1011B000CA95EAF7DF91CF911F910F910C94320CF1
:1011C000812FDF91CF911F910F910C94180CDF911B
:1011D000CF911F910F9108959C01CB01233F4CE5C6
:1011E0003407F9F078F4283DFCE53F07B9F0293DD4
:1011F0004CE5340711F1273D3C4531F526E241EE3F
:1012000061EE1EC0253FFCE53F0799F070F0263FD8
:101210003C45D1F427E245EE66EE12C027E245EEEA
:101220000EC026E241EE60EE0BC027E245EE64EE12
:1012300007C026E241EE62EE03C028E241E065EE1F
:101240000E94780880E00895FC018281882319F0CB
:1012500010925E01089581E00895CF93DF93EC0131
:10126000FB018281882309F41FC1C230FCE5DF073E
:1012700008F41BC1C6319CE5D90738F09E012A5FEE
:101280003C452930310508F010C10E948B14909321
:10129000020280930102C031ECE5DE0709F4C3C00D
:1012A00008F041C0C8308CE5D80709F49AC0F0F4C2
:1012B000C430ECE5DE0709F487C068F4C2308CE581
:1012C000D80709F477C0C330DC4509F0E3C080914A
:1012D0000102826076C0C630ECE5DE0709F46EC01C
:1012E00008F07BC08091010288606BC0CC308CE537
:1012F000D80709F485C068F4CA30ECE5DE0709F4C4
:1013000074C008F079C00E946E0E8091010280685E
:1013100058C0CE308CE5D80709F476C008F07FC0FD
:10132000809101028BC0CB3FECE5DE0709F44FC092
:1013300018F5C3318CE5D80709F47DC078F4C131C4
:10134000ECE5DE0709F473C0C231DC4509F0A2C048
:101350000E946E0E809101028F7733C0C5318CE5FB
:10136000D80709F472C008F486C0CA3FDC4509F00A
:1013700091C0809102023EC0CF3FFCE5DF0709F437
:101380005FC058F4CD3F9CE5D90709F444C008F488
:101390003FC08091020282602DC0C130FDE5DF07B1
:1013A00009F475C008F45DC0C230DD4509F072C0B3
:1013B00080E06EC080910102816003C080910102D3
:1013C00080618093010266C08091010211C080910A
:1013D00002028260809302025DC0809101028062FD
:1013E000F0CF809101028064ECCF8091010288608F
:1013F0008460E7CF8160EECF809101028E7FE1CFE4
:10140000809101028D7FDDCF80910102877FD9CF4E
:101410008091020218C0809102028D7FDBCF809103
:1014200001028F7ECECF809101028F7DCACF809145
:1014300001028F7BC6CF80910102877F8B7FC1CF56
:10144000809102028D7F8E7FC5CF8091010282FB49
:10145000222720F991E0922790FB82F990FB83F9F3
:10146000B0CF80910202982F909591708E7F892B3A
:1014700090FB81F9AFCF0E946E0E8091010287FB35
:10148000222720F991E0922790FB87F99ACF81E0FB
:101490000E941A1580910102909102020E949C14F0
:1014A0000E946E0E80E001C081E0DF91CF9108952F
:1014B000CF93DF9386319C4541F5EB010E94D41315
:1014C000982F8A8120911C0130911D01882379F089
:1014D0009A7A81E009F480E080935F01911102C063
:1014E00069E201C065E3C9010E9461150AC08091EB
:1014F0005F01811102C069E201C065E3C9010E9478
:1015000063150E94151480E001C081E0DF91CF9146
:10151000089590936501809364010895E0916401BA
:10152000F0916501309721F00190F081E02D099450
:1015300080E00895E0916401F0916501309721F019
:101540000280F381E02D0994089520916201309189
:1015500063012817390771F090936301809362014A
:10156000E0916401F0916501309721F00680F781E8
:10157000E02D0994089520916001309161012817B0
:10158000390771F09093610180936001E0916401EB
:10159000F0916501309721F00084F185E02D0994E8
:1015A000089585B7806885BF85B7806885BF089531
:1015B00008950C94D80A0C94D90A0C94D80A0E9465
:1015C000D10A0E94B1050C94DB0A81E008950E94C3
:1015D000EC150E9408040E9462160C94DD0AAF927A
:1015E000BF92CF92DF92EF92FF920F931F93CF9310
:1015F000DF93CDB7DEB72A970FB6F894DEBF0FBEE4
:10160000CDBF0E9427050E94E50A811111C08FEF0E
:1016100089838A831B820E94F5158160782F9D83C0
:101620008C8349815A816B818D810E94850B40C0DA
:1016300087E6A82E81E0B82E00E010E0C02E802FB3
:101640000E948E05E82EF501D1905F01D82631F475
:101650000F5F1F4F0830110589F7D9CF8091E00146
:1016600081FD0E94940580E0FF24F3949D2D9F212D
:10167000D1F08E83CF82EF2081E009F480E088876B
:101680000E94F5158160782F9A8789874E815F8146
:1016900068858A850E94850BF801E959FE4F808193
:1016A000F826F08205C08F5FFF0C8730F9F6D0CFA7
:1016B0000E948E0A909166018917B1F00E948E0AED
:1016C000809366012A960FB6F894DEBF0FBECDBF99
:1016D000DF91CF911F910F91FF90EF90DF90CF900E
:1016E000BF90AF900C945B062A960FB6F894DEBFBD
:1016F0000FBECDBFDF91CF911F910F91FF90EF9063
:10170000DF90CF90BF90AF900895CF93DF93CDB788
:10171000DEB72B970FB6F894DEBF0FBECDBF4F8359
:10172000588769877A878B87DE01119686E0FD01ED
:1017300011928A95E9F785E0FE01379601900D92A6
:101740008A95E1F749815A816B817C818D819E81E7
:101750000E943E112B960FB6F894DEBF0FBECDBF90
:10176000DF91CF910895FC01808191810E949513B2
:101770000895CF93882371F1C82F8CEF8C0F813A95
:10178000D0F46C2F80911C0190911D010E942B15AB
:10179000882349F06C2F80911C0190911D010E94BB
:1017A00063150E9415146C2F80911C0190911D01EE
:1017B0000E9461150CC080E28C0F883058F4C7700D
:1017C00081E001C0880FCA95EAF70E94D713CF9134
:1017D0000C941514CF910895882349F1682F8CEF4C
:1017E000860F813A38F480911C0190911D010E946E
:1017F00063150CC080E2860F883050F4677081E07A
:1018000001C0880F6A95EAF70E94DD130C94151445
:101810008BE5860F833020F480E090E00C94A50ADD
:10182000685A673120F480E090E00C94BB0A089578
:10183000CF93C82F0E94B90BC93349F42FEF87EE1D
:1018400093E0215080409040E1F700C000008C2FD1
:10185000CF910C94EC0B882321F00E94D7130C94A9
:1018600015140895882321F00E94DD130C9415149B
:101870000895CF92DF92EF92FF920F931F93CF9331
:10188000DF937C01D62FC72FFC01158112951F70A5
:10189000028101110E94F4130E94CD13882379F074
:1018A000002369F080E28D0F883048F082E00E94CA
:1018B0005F140E94CD1391E0D82ED92601C0D12CFF
:1018C000CC2EC2948FE0C8228C2D90E08C309105F4
:1018D00008F08DC1FC01EA5AFF4F0C94DA1C8C2FE2
:1018E000807FCF70882311F0C295C07F002399F0CC
:1018F000CC2309F468C180E28D0F883010F0D1113B
:1019000004C08C2F0E94D71303C08C2F0E94E713B2
:101910000E94151458C18D2F0E94EC0BCC2309F4A2
:1019200066C180E28D0F883010F0D11104C08C2F79
:101930000E94DD1303C08C2F0E94ED130E9415142A
:1019400056C18C2F807FCF70803211F0C295C07F3E
:10195000DD2319F0D130C9F022C0002371F011232A
:1019600041F0113031F40E94FA138C2B0E940214C2
:101970003EC10E94FA138C2B1DC0112319F01130A7
:1019800009F435C10E940B1425C0002321F0163044
:1019900008F02DC10EC0153008F029C11BC000236E
:1019A00061F0112331F0F701858180FF0CC18F7048
:1019B00085838C2F0E942B0C1AC1112359F0D93327
:1019C00009F012C1FFEF07EE13E0F15000401040A4
:1019D000E1F708C18C2F0E94320C09C18C2F837053
:1019E00009F047C0011107C12D2F229526952770B8
:1019F000220F220F6D2F6F70862F90E0A0E0B0E0D5
:101A0000022E04C0880F991FAA1FBB1F0A94D2F789
:101A1000D4FF10C04FE050E060E070E004C0440F1D
:101A2000551F661F771F2A95D2F7409550956095F0
:101A3000709503C040E050E0BA01C695C695C370EA
:101A40008A019B01082B192B2A2B3B2BC901B801BA
:101A5000C23049F058F4C13019F00E941212CBC0C4
:101A60000E940012C8C00E942412C5C00E94FE112C
:101A7000C2C0002319F08C2F817001C08695882385
:101A800009F4B9C02D2F229526952770220F220F19
:101A90006D2F6F70862F90E0A0E0B0E0022E04C0A2
:101AA000880F991FAA1FBB1F0A94D2F7D4FF10C03A
:101AB0004FE050E060E070E004C0440F551F661F27
:101AC000771F2A95D2F7409550956095709503C081
:101AD00040E050E0BA01C695C695C3708A019B01EB
:101AE000082B192B2A2B3B2BC901B801C23049F016
:101AF00058F4C13019F00E94D7127DC00E94C5125F
:101B00007AC00E94E91277C00E94381274C0CF7068
:101B1000002339F08C2F0E945E128D2F0E942B0C17
:101B20006AC08D2F0E94320C8C2F0E947F1263C0DE
:101B3000D23F01F128F4D03F41F0D13FA1F03FC0A6
:101B4000D33FF9F0D43F39F13AC0002341F01530CA
:101B500008F04DC08C2F8F710E94A41248C016301F
:101B600008F045C0F7CF002339F08C2F8F710E9409
:101B70005E123DC00023C9F38C2F8F710E947F122B
:101B800036C0002329F08C2F8F710E9449122FC07C
:101B90000E9444122CC0002349F0CF718C2F0E9468
:101BA0005E1263E08C2F0E944A1421C081E00E94E3
:101BB0005F141230E0F082E00E945F1418C000232E
:101BC00031F0112391F28D2F0E94B90B10C0112317
:101BD00099F2D93349F41FEF27EE33E0115020403A
:101BE0003040E1F700C000008D2F0E94EC0B88EF21
:101BF0008C0D843020F40E948E0A0E945B06DD204A
:101C0000C9F00E94C91380FD15C0F70112820E941D
:101C1000C3130E945E12C7010E943B0E0E94C313B1
:101C2000DF91CF911F910F91FF90EF90DF90CF90B8
:101C30000C947F12DF91CF911F910F91FF90EF9045
:101C4000DF90CF9008950F931F93CF93DF93EC0114
:101C5000688179818A810E94A0138C010E94FB1205
:101C60000E94EC11B801CE010E94390CDF91CF9196
:101C70001F910F910895CF93DF93FC019081818193
:101C800023813481232B31F08F3F31F481E09F3F5A
:101C900019F403C081E001C080E080FD0EC0EF01B7
:101CA000CF010E947406882341F0CE010E94230ECA
:101CB000CE01DF91CF910C944006DF91CF91089532
:101CC0000E94F4130E94F7130C94151480911C01C8
:101CD00090911D010E9465150C94600E0E94E41302
:101CE0000C94660EE92FE295EF704E2F50E0FA014A
:101CF0003297EE30F105B0F4EE59FF4F0C94DA1C38
:101D0000803F91F018F4883E68F40EC0843F51F48F
:101D10000BC0883E48F0813F29F406C093FB88271A
:101D200080F9089580E0089581E008950E94951358
:101D30000E94720E0895CF93DF9300D000D01F92BF
:101D4000CDB7DEB70F900F900F900F900F90DF91EF
:101D5000CF910895CF93DF9300D000D000D0CDB7BE
:101D6000DEB726960FB6F894DEBF0FBECDBFDF916B
:101D7000CF9108951F93CF93DF93C091700116E028
:101D800080917101C81799F0D0E01C9FF0011D9F50
:101D9000F00D1124EE58FE4F408151816281738114
:101DA000848195810E94AA0E2196C770E9CFDF91A8
:101DB000CF911F9108954091A2015091A30160918C
:101DC000A4017091A5018091A6019091A7010C94A6
:101DD000AA0ECF938091A70182958F7009F05FC002
:101DE0008091A401882309F45AC080917001B091B8
:101DF00071017091A201A091A3014091A5015091A0
:101E0000A60191E07F3F09F090E0692FC6E08B17B3
:101E100009F445C04115510521F0AF3F21F020E004
:101E200003C021E001C0262F90E020FD35C0C89FEF
:101E3000F001C99FF00D1124EE58FE4F21812A13A5
:101E40002BC02081271328C02281211125C0238186
:101E500034812417350710F421503109241B350B28
:101E6000283C3105C8F42091A7012F7020612093F0
:101E7000A70126E0289FF001299FF00D1124E958C1
:101E8000FE4F80818F708061808382EA91E00E94A2
:101E90003B0ECF910C94BA0E01968770B8CFCF91BC
:101EA0000895AF92BF92CF92DF92EF92FF920F937D
:101EB0001F93CF93DF93CDB7DEB761970FB6F8943A
:101EC000DEBF0FBECDBF8C0185E0F801DE011D969F
:101ED00001900D928A95E1F7D8014C9111965C9191
:101EE00011971296EC903091A2016091A30180911C
:101EF000A5019091A601009731F06F3F31F421E0E8
:101F00003F3F19F403C021E001C020E0B22FB170BF
:101F1000BB2E20FD60C1F801C380D480A090A40135
:101F2000AA2009F4EEC02091A701C816D90628F00E
:101F3000D601A81BB90BCD0104C0809590958C0DDE
:101F40009D1DFF24F394883C910580F0F12C207FA7
:101F500009F09CC07C2DD98AC88A6E2D89890E947F
:101F60009B0E82EA91E00E943B0E2DC1822F807F62
:101F700009F054C0561314C0431312C0FE2CE110D4
:101F80000FC02F7020612093A7010E94DB0E82EA10
:101F900091E00E943B0E8091A701F80185835CC10E
:101FA000CD2831F05F3F31F481E04F3F19F403C099
:101FB00081E001C080E080FD03C081E08E2502C089
:101FC00080E090E0F82FF170FF2E80FF1CC0809120
:101FD00070012091710136E0821709F41AC190E076
:101FE000389FF001399FF00D1124EE58FE4F6181AA
:101FF000561306C06081461303C06281E61203C017
:1020000001968770E9CFFE2CEE2009F425C180915E
:10201000A70181608093A701F12C1EC1561309C04E
:10202000431307C0E11005C08091A701F801858323
:10203000A4C04D875E878D859E850E94960E88235D
:1020400079F1EE2069F12091A701822F82958F709E
:1020500090E0029774F08091A2019091A30198877B
:102060008F831986DB86CA862C87CE0107960E944D
:102070003B0E86E0F801A2EAB1E001900D928A954C
:10208000E1F70E94E90E0E94DB0E0DC0561771F0B9
:102090004D875E878D859E850E94960E81111AC0A0
:1020A000C8010E943B0EFF24F394D6C04313F0CF27
:1020B000E110EECF8091A701F8018583C8010E944D
:1020C0003B0E86E0E2EAF1E0DF011D928A95E9F736
:1020D000FA2CC2C0EE2021F32091A701822F829515
:1020E0008F7090E002972CF28091A2019091A30151
:1020F0009A8389831B82DD82CC822E83CE01019656
:10210000B6CFC816D90628F0F601E81BF90BCF01A7
:1021100004C0809590958C0D9D1D883C910548F0DC
:10212000F12C7C2DD98AC88A6E2D89890E949B0E3C
:102130004AC0FE2CEE2009F4B3CF561333C043132C
:1021400031C02091A70120FD24C0822F82958F707D
:10215000482F50E041155105E1F0D80115962C9318
:1021600015974F30510549F08F5F982F9295907FCA
:10217000822F8F70892B15968C93C8010E943B0E7D
:1021800086E0F801A2EAB1E001900D928A95E1F7AC
:102190003DC086E0F801A2EAB1E001900D928A9577
:1021A000E1F75AC04D875E878D859E850E94960E09
:1021B00081115FCF8091A70181608093A701C80141
:1021C0000E943B0E49C0E2EAF1E086E0DF011D9289
:1021D0008A95E9F71BC0EE2009F462CF4D875E8730
:1021E0008D859E850E94960EF82E882309F458CF7F
:1021F00086E0F801A2EAB1E001900D928A95E1F73C
:1022000082EA91E00E94B30B0E94E90E0E94DB0E6D
:1022100023C04D875E878D859E850E949513292F4B
:1022200022952F70223028F49F7039F0811105C05B
:102230000BC0243028F49F7049F4805E883020F071
:10224000C8010E943B0EBF2CFB2C06C0D80115967E
:102250009C91907F91F7F8CF8F2D61960FB6F894EF
:10226000DEBF0FBECDBFDF91CF911F910F91FF90C9
:10227000EF90DF90CF90BF90AF9008951F93CF93D2
:10228000DF93CDB7DEB72C970FB6F894DEBF0FBE45
:10229000CDBF4F83588769877A878B879C87CE010C
:1022A00007960E94510F8823D1F09F8188852A8547
:1022B0003B85232B31F08F3F31F481E09F3F19F4B0
:1022C00003C081E001C080E080FD47C04F81588598
:1022D00069857A858B859C850E94AA0E3EC086E022
:1022E000FE013796DE01119601900D928A95E1F775
:1022F000FF81E8856A857B856115710531F0EF3FC7
:1023000031F481E0FF3F19F403C081E001C080E0B7
:1023100080FD23C02091710130E0C90101968770D2
:1023200099274091700150E084179507F1F1F983E6
:10233000EA837D836C8396E0929FD001939FB00DDA
:102340001124AE58BE4FFE01319601900D929A9520
:10235000E1F7809371010E94BA0E16E0809170013E
:1023600090917101891771F1189FC00111248E5845
:102370009E4F0E94510F882329F1E09170011E9F0A
:10238000F0011124EE58FE4F40815181628173812A
:10239000848195810E94AA0E8091700190E001963F
:1023A0008770992780937001D9CF0E946E0E10928A
:1023B000710110927001E2EAF1E086E0DF011D9206
:1023C0008A95E9F72C960FB6F894DEBF0FBECDBF05
:1023D000DF91CF911F910895089508950C94ED1108
:1023E0000C94EE110E94F0116093CF017093D00114
:1023F0008093D1019093D2010C94600E0C94F21151
:102400000F931F930091CF011091D0012091D10122
:102410003091D201602B712B822B932B1F910F9146
:102420000C94F2110F931F930091CF011091D001E2
:102430002091D1013091D201602371238223932313
:102440001F910F910C94F2110F931F930091CF01E4
:102450001091D0012091D1013091D20160277127D4
:10246000822793271F910F910C94F2110C94ED1178
:102470000E9436126093CB017093CC018093CD0102
:102480009093CE010C94600E60E070E0CB010C9450
:1024900038120F931F9341E050E060E070E08A0132
:1024A0009B0104C0000F111F221F331F8A95D2F712
:1024B000C901B8011F910F910C9438120F931F930B
:1024C00041E050E060E070E004C0440F551F661F1B
:1024D000771F8A95D2F78091CB019091CC01A09182
:1024E000CD01B091CE018A019B01082B192B2A2B1B
:1024F0003B2BC901B8011F910F910C9438120F9317
:102500001F9341E050E060E070E004C0440F551FAD
:10251000661F771F8A95D2F7409550956095709504
:102520008091CB019091CC01A091CD01B091CE01D1
:102530008A019B01082319232A233B23C901B801DF
:102540001F910F910C9438120F931F9341E050E0AC
:1025500060E070E004C0440F551F661F771F8A9526
:10256000D2F78091CB019091CC01A091CD01B09197
:10257000CE018A019B01082719272A273B27C90179
:10258000B8011F910F910C9438120F931F93009173
:10259000CB011091CC012091CD013091CE01602B67
:1025A000712B822B932B1F910F910C9438120F9348
:1025B0001F930091CB011091CC012091CD0130915E
:1025C000CE0160237123822393231F910F910C94DA
:1025D00038120F931F930091CB011091CC012091E1
:1025E000CD013091CE0160277127822793271F915B
:1025F0000F910C943812089527E0929F800D1124BA
:10260000E82FE695E695E695877051E001C0550FF5
:102610008A95EAF785E0E89FF0011124E855FE4F1E
:1026200020E030E070E04081CB01022E02C09695A0
:1026300087950A94E2F78170819584278523842702
:1026400081932F5F3F4F2530310569F7089527E0CB
:10265000929F800D1124682F669566956695982F38
:10266000977085E0689FB001112440E050E080E061
:10267000FB01E40FF51FE855FE4F208130E0092EE5
:1026800002C0369527950A94E2F721703327042E6D
:1026900001C0220F0A94EAF7822B4F5F5F4F45304B
:1026A000510531F70895BF92CF92DF92EF92FF92DA
:1026B0000F931F93CF93DF938C01C090CB01D090E9
:1026C000CC01E090CD01F090CE018091CF019091AE
:1026D000D001A091D101B091D201C82AD92AEA2A09
:1026E000FB2ACFE1D0E0D701C6010C2E04C0B6957D
:1026F000A795979587950A94D2F780FD04C02197F6
:1027000090F7B12C07C0BC2EB8018C2F0E94C306D5
:102710000197A9F38B2DDF91CF911F910F91FF901E
:10272000EF90DF90CF90BF900895CF93DF93EC01AF
:102730000E945313BE010E94C306DF91CF910895FA
:102740001F93CF93DF93EB0190916F01992321F0B9
:10275000CB010E94951313C0882349F0CB010E943E
:102760005313182F682FCE010E94FC1204C0CB0116
:102770000E942713182FBE01812F0E94C306DF91EC
:10278000CF911F9108958091D30185958595859569
:1027900008958091D301877008959091D301977027
:1027A00081E009F480E008958091DF01089590911F
:1027B000DF01892B8093DF01089580959091DF01DF
:1027C00089238093DF0108951092DF01089590918D
:1027D000DE01892B8093DE01089580959091DE01C2
:1027E00089238093DE0108951092DE0108951092EE
:1027F000DD0108958091D401089508950C94FD138E
:102800000C94FE139091D401981721F08093D40179
:102810000C94001408958091D401882329F010921B
:10282000D40180E00C9400140895E0911C01F09113
:102830001D018091DF018083E0911C01F0911D0159
:1028400090818091DE01892B8083E0911C01F091C1
:102850001D0190818091DD01892B80838091D401BD
:10286000882381F0E0911C01F0911D019081892B5A
:10287000808380911C0190911D010E941F15811180
:102880000E940B1480911C0190911D010C949A0AD6
:102890000C94FD1398E0899F90011124262B20931E
:1028A000D3010E945E128091D3018595859585950F
:1028B0000C9448141092D30180E00C944814209199
:1028C000D301809582238093D301982F977079F458
:1028D00030E0482F082E000C550B2417350739F02F
:1028E0008595859585950E947F120C945A140895BC
:1028F00080E090E00E94F51C21E08C3E9E4F09F0A4
:1029000020E0822F089582E090E00C94ED1C83E09B
:1029100090E00C94ED1CCF9384E090E00E94ED1CBD
:10292000C82F81E290E00E94ED1C2C2F30E0A9011D
:10293000582BCA01CF910895CF93C92F682F84E0F7
:1029400090E00E94FB1C6C2F81E290E0CF910C94F0
:10295000FB1CAB01BC018FE090E00C940D1DAB01A2
:10296000BC0183E190E00C940D1D60E070E0CB01B0
:102970000C94AF1460E070E0CB010E94A9140C9499
:10298000B5146CEE7EEF80E090E00E94191D60E0CF
:1029900082E090E00E94FB1C60E083E090E00E94F7
:1029A000FB1C1092CF011092D0011092D101109215
:1029B000D20160E084E090E00E94FB1C60E081E2D4
:1029C00090E00E94FB1C60E085E090E00E94FB1C10
:1029D00060E086E090E00E94FB1C6FEF87E090E0F3
:1029E0000E94FB1C40E050E0BA0188E090E00E94A9
:1029F0000D1D60E08DE090E00E94FB1C40E050E087
:102A0000BA0188E190E00E940D1D60E087E190E04E
:102A10000E94FB1C40E050E0BA018CE190E00E9473
:102A20000D1D60E080E290E00E94FB1C0C94BA1443
:102A30000C94C114682F8EE090E00C94FB1CFC01F8
:102A4000329697E080E0915029F021912223D9F32A
:102A50008F5FF9CF0895662349F0FC0132960896FE
:102A60002191621729F0E817F907D1F780E008955E
:102A700081E008959C01FC0132969FEF80E0419136
:102A8000461789F09F3F19F4411101C0982F8F5FBD
:102A90008630A9F79F3F39F0F901E90FF11D97FD45
:102AA000FA956283089508959C012A5F3F4FFC01C7
:102AB0004281461301C01282019682179307B9F72B
:102AC00008950C943A150C945415029626E0FC01D6
:102AD00011922A95E9F7089508950C946C150C94B9
:102AE0006C15CF930E946F150E9427050E946D15EB
:102AF000C0E08C2F0E948E05811104C0CF5FC830CA
:102B0000C1F701C081E0CF9108950C946C150C942D
:102B100085150E94871580910702843049F1109233
:102B2000E10120E488E190E00FB6F894A895809345
:102B300060000FBE2093600080E00E945B060E9450
:102B4000871583B7817F846083BF83B7816083BF2C
:102B50007894889583B78E7F83BF0FB6F894A89535
:102B600080916000886180936000109260000FBEC9
:102B700008950C946C150E946E0E0E948E0A0E949D
:102B80005B060C94B9151F920F920FB60F92112489
:102B90008F939F93AF93BF938091E101811113C0F5
:102BA0008091FD019091FE01A091FF01B091000282
:102BB0004196A11DB11D8093FD019093FE01A0934C
:102BC000FF01B0930002BF91AF919F918F910F9041
:102BD0000FBE0F901F90189582E084BD93E095BDC5
:102BE0009AEF97BD80936E0008952FB7F894809167
:102BF000FD019091FE01A091FF01B09100022FBF55
:102C00000895CF92DF92EF92FF920F931F932FB709
:102C1000F8944091FD015091FE016091FF01709187
:102C200000022FBF6A017B01EE24FF248C0120E00B
:102C300030E0C016D106E206F30610F44150510907
:102C40009A01281B390BC9011F910F91FF90EF903A
:102C5000DF90CF90089578941F920F920FB60F9245
:102C600011248F939F93AF93BF938091FD01909117
:102C7000FE01A091FF01B09100020196A11DB11DBE
:102C80008093FD019093FE01A093FF01B093000299
:102C9000BF91AF919F918F910F900FBE0F901F909A
:102CA000189587E797E790930108809300089AE0CA
:102CB00088E10FB6F894A895809360000FBE9093BA
:102CC0006000FFCF0E947814811102C00E94181585
:102CD0000E9483148093E0010E948B14909302025F
:102CE000809301020E948714682F70E080E090E0DA
:102CF0000C94FE118091EA01089508950895CF93F0
:102D0000DF93EC010E941F18823011F0843039F5F6
:102D100081E08093E9008FEF9091E800815095FD6C
:102D200006C095ED9A95F1F700008111F5CF8091DD
:102D3000E80085FF14C040E050E068E070E0CE019C
:102D40000E943C188091E8008E778093E80088E02C
:102D5000FE01A2EEB1E001900D928A95E1F7DF91BC
:102D6000CF910895089580910602811109C00E94B3
:102D7000CD190E942A1A8091E20084608093E200BB
:102D80000895109206020895089508950C94BB15B5
:102D900042E061EC81E00C94461980910902833095
:102DA00009F460C030F4813071F0823009F499C0C8
:102DB00008958A3009F485C08B3009F46BC08930DE
:102DC00009F0A7C020C080910802813A09F0A1C093
:102DD0008091E800877F8093E80080910C029091B9
:102DE0000D02892B21F468E082EE91E003C060E0DF
:102DF00080E090E070E00E9487188091E8008B7777
:102E00008093E800089580910802813209F081C022
:102E100080910C0290910D02892B09F07AC080916B
:102E2000E800877F8093E8008091E80082FD05C07C
:102E3000809107028111F8CF6CC02091F30080913E
:102E4000F20090E0922B029729F48091F1008B7FA1
:102E5000813021F48091F1008093EA018091E800B3
:102E60008B7753C080910802813A09F052C080915B
:102E70000C0290910D02892B09F04BC08091E80063
:102E8000877F8093E8008091E80080FFFCCF8091ED
:102E9000280136C0809108028132D9F580910C0258
:102EA00090910D02892BA9F58091E800877F80938E
:102EB000E8000E947B1980910A02809328010C94FB
:102EC0006E0E80910802813221F58091E800877FA3
:102ED0008093E8000E947B1980910B028093EB01A4
:102EE000089580910802813AA1F48091E800877FDB
:102EF0008093E8008091E80080FFFCCF8091EB0197
:102F00008093F1008091E8008E778093E8000C9424
:102F10007B19089584B7877F84BF0FB6F894A8956E
:102F200080916000886180936000109260000FBE05
:102F300090E080E80FB6F894809361009093610070
:102F40000FBE0E94DF0A0E94CD190E942A1A8091AA
:102F5000E20084608093E20078940E94BF1C0E948B
:102F6000E70A8EE191E00E94890A8091070285308C
:102F700069F40E948915809105028823B1F30E94AB
:102F80007115882391F30E942618EFCF0E94EF0A53
:102F9000ECCF0C94CB17292F332723303105C1F008
:102FA00058F42130310579F022303105C1F582E243
:102FB00090E02CE632E037C02132310511F12232A7
:102FC000310531F12CC082E190E02EE832E02BC0D7
:102FD00099278130910561F040F08230910559F0D8
:102FE0000397E9F4E4E4F2E008C0E8E6F2E005C0A3
:102FF000EAE5F2E002C0EAE4F2E0849190E09F01A9
:1030000012C0672B61F489E090E02EE732E00BC03C
:10301000672B29F480E490E020EA32E004C080E0ED
:1030200090E020E030E0FA01318320830895809120
:103030000702843011F081E0089582E008958091C4
:10304000EC01811102C00C941718089580E189BD2C
:1030500082E189BD09B400FEFDCF8091D8008F7D4B
:103060008093D8008091E00082608093E00080919E
:10307000E00081FDFCCF0895CF92DF92EF92FF92A6
:103080000F931F93CF93DF93EC018B017A010E9482
:103090009A19811133C0E114F10439F0F7018081EC
:1030A0009181081B190BC80FD91FC12CD12C0115F8
:1030B000110519F18091E80085FD16C08091E800A6
:1030C0008E778093E800E114F10449F0F7018081E4
:1030D0009181C80ED91ED182C08285E00FC00E94A6
:1030E0009A19882321F30AC089918093F100015035
:1030F0001109FFEFCF1ADF0ADACF80E0DF91CF911D
:103100001F910F91FF90EF90DF90CF900895209145
:103110000E0230910F022617370748F0611571052E
:1031200039F42091E8002E772093E80001C0B9011E
:10313000FC0120E06115710579F180910702882377
:10314000F1F18530F1F18091E80083FD3CC0809180
:10315000E80082FD2EC08091E80080FFEBCF209137
:10316000F3008091F20090E0922B6115710551F00F
:103170008830910538F421912093F1006150710954
:103180000196F3CF21E0089709F020E08091E80054
:103190008E778093E800CECF2111CFCF0AC08091E7
:1031A0000702882361F0853061F08091E80083FD9B
:1031B0000AC08091E80082FFF2CF80E0089582E0AB
:1031C000089583E0089581E0089520910E023091E2
:1031D0000F022617370748F06115710539F4209161
:1031E000E8002E772093E80001C0B901FC0120E03F
:1031F0006115710591F180910702882309F440C09F
:10320000853009F43FC08091E80083FD3DC0809186
:10321000E80082FD2FC08091E80080FFE9CF209177
:10322000F3008091F20090E0922B6115710559F046
:103230008830910540F424912093F100319661503B
:1032400071090196F2CF21E0089709F020E0809102
:10325000E8008E778093E800CBCF2111CCCF0AC055
:1032600080910702882361F0853061F08091E80049
:1032700083FD0AC08091E80082FFF2CF80E00895CC
:1032800082E0089583E0089581E00895982F9730B3
:1032900068F59093E900981739F07091EC0020914F
:1032A000ED005091F00003C0242F762F50E021FD57
:1032B00002C09F5FECCF3091EB003E7F3093EB007C
:1032C0003091ED003D7F3093ED003091EB003160A7
:1032D0003093EB007093EC002093ED005093F000DE
:1032E0002091EE0027FDE5CF80E008958F70809358
:1032F000E90081E008958091080287FF11C0809164
:10330000E80082FD05C0809107028111F8CF11C04D
:103310008091E8008B770BC080910702882349F0E9
:103320008091E80080FFF8CF8091E8008E7780934D
:10333000E80008952091E4003091E50095E6409181
:10334000EC00842F817040FF23C08091E80080FD55
:103350001DC080910702882399F0853099F08091F3
:10336000EB0085FD11C04091E4005091E500241769
:10337000350729F3915011F09A01E1CF84E00895C7
:1033800082E0089583E0089581E0089580E0089543
:103390004091E80042FFDDCF08950E943B1A0E9451
:1033A000431AE0EEF0E0808181608083E8EDF0E098
:1033B00080818F77808319BCA7EDB0E08C918E7FE0
:1033C0008C9380818F7E80831092060208950F93E4
:1033D0001F93CF93DF930E943B1A0E94431AC8EDBC
:1033E000D0E088818F77888388818068888388810E
:1033F0008F7D888319BC10920702109203021092ED
:1034000005021092040200EE10E0F80180818B7F2B
:10341000808388818160888342E060E080E00E9450
:103420004619E1EEF0E080818E7F8083E2EEF0E0ED
:10343000808181608083808188608083F8018081C1
:103440008E7F8083888180618883DF91CF911F91F7
:103450000F910895E8EDF0E080818F7E8083E7EDA5
:10346000F0E080818160808384E082BF81E080938E
:1034700006020C94E719E8EDF0E080818E7F8083EE
:103480001092E20008951092DA001092E10008957F
:103490001F920F920FB60F9211242F933F934F93C9
:1034A0005F936F937F938F939F93AF93BF93EF93AC
:1034B000FF938091E10082FF0BC08091E20082FFC8
:1034C00007C08091E1008B7F8093E1000E94BE1CC9
:1034D0008091DA0080FF1FC08091D80080FF1BC060
:1034E0008091DA008E7F8093DA008091D90080FF8E
:1034F0000DC080E189BD82E189BD09B400FEFDCF28
:1035000081E0809307020E94B31605C019BC109297
:1035100007020E94C1168091E10080FF19C08091CE
:10352000E20080FF15C08091E2008E7F8093E20070
:103530008091E20080618093E2008091D8008062F7
:103540008093D80019BC85E0809307020E94C516BD
:103550008091E10084FF30C08091E20084FF2CC0A4
:1035600080E189BD82E189BD09B400FEFDCF809173
:10357000D8008F7D8093D8008091E1008F7E80936A
:10358000E1008091E2008F7E8093E2008091E20072
:1035900081608093E20080910302882311F084E02F
:1035A00007C08091E30087FD02C081E001C083E095
:1035B000809307020E94C6168091E10083FF29C014
:1035C0008091E20083FF25C08091E100877F809396
:1035D000E10082E080930702109203028091E100F3
:1035E0008E7F8093E1008091E2008E7F8093E200E5
:1035F0008091E20080618093E20042E060E080E040
:103600000E9446198091F00088608093F0000E942B
:10361000C416FF91EF91BF91AF919F918F917F91D0
:103620006F915F914F913F912F910F900FBE0F902F
:103630001F9018951F920F920FB60F9211242F937F
:103640003F934F935F936F937F938F939F93AF932A
:10365000BF93CF93DF93EF93FF93C091E900CF70B7
:103660008091EC00D82FD17080FDD0E81092E90055
:103670008091F000877F8093F00078940E945E1B19
:103680001092E9008091F00088608093F000CD2BCB
:10369000CF70C093E900FF91EF91DF91CF91BF917F
:1036A000AF919F918F917F916F915F914F913F91DA
:1036B0002F910F900FBE0F901F9018951F93CF93CF
:1036C000DF93CDB7DEB7AA970FB6F894DEBF0FBE73
:1036D000CDBFE8E0F2E08091F100819322E0E0319B
:1036E000F207C9F70E94CD168091E80083FF2EC132
:1036F0008091080290910902492F50E04A3051050B
:1037000008F024C1FA01E059FF4F0C94DA1C80380C
:1037100021F0823809F01AC108C08091040290910A
:103720000502992389F082600FC080910C028F708E
:10373000873008F00BC18093E9008091EB0085FB96
:10374000882780F91092E9009091E800977F909384
:10375000E8008093F1001092F100D1C0282F2D7F56
:1037600009F0F4C0882319F0823061F0EFC0809135
:103770000A02813009F0EAC0933009F080E08093BA
:1037800005022EC080910A0281112AC080910C028C
:103790008F702FEF280F263008F0D8C08093E900F3
:1037A0002091EB0020FF1CC0933021F48091EB00AE
:1037B000806214C09091EB0090619093EB0021E047
:1037C00030E0A90102C0440F551F8A95E2F74093EB
:1037D000EA001092EA008091EB0088608093EB0091
:1037E0001092E9008091E800877F8093E8000E94B2
:1037F0007B19ACC08111AAC010910A021F77809179
:10380000E3008078812B8093E3008091E800877F3C
:103810008093E8000E947B198091E80080FFFCCF34
:103820008091E30080688093E300111102C082E080
:1038300001C083E08093070289C08058823008F07D
:1038400085C080910A0290910B028C3D53E0950750
:1038500079F583E08A838AE289834FB7F894DE01A1
:10386000139620E03EE051E2E32FF0E05093570042
:10387000E49120FF03C0E295EF703F5FEF708E2F61
:1038800090E0EA3010F0C79601C0C0968D939D93EA
:103890002F5F243149F74FBF8091E800877F8093E5
:1038A000E8006AE270E0CE0101960E94871816C017
:1038B00060910C0270910D02AE014F5F5F4F0E944C
:1038C000C917BC01892B09F441C09091E800977F8A
:1038D0009093E80089819A810E94E5188091E80020
:1038E0008B778093E80032C0803881F58091E800C2
:1038F000877F8093E800809103028093F10080919C
:10390000E8008E7772CF811121C080910A029091D8
:103910000B0299270297D4F48091E800877F809367
:10392000E80080910A02809303020E947B19809133
:103930000302811106C08091E30087FD02C081E08F
:1039400001C084E0809307020E94C8168091E800BD
:1039500083FF0AC08091E800877F8093E800809110
:10396000EB0080628093EB00AA960FB6F894DEBF5E
:103970000FBECDBFDF91CF911F9108950895CF93D2
:10398000809107028823A1F0C091E900CF70909147
:10399000EC00892F817090FD80E8C82B1092E9001F
:1039A0008091E80083FD0E945E1BCF70C093E90008
:1039B000CF910895EE0FFF1F0590F491E02D09942B
:1039C000FB01DC0104C08D910190801921F441506C
:1039D0005040C8F7881B990B0895F999FECF92BD06
:1039E00081BDF89A992780B50895A8E1B0E042E03A
:1039F00050E00C94211D262FF999FECF92BD81BD78
:103A0000F89A019700B4021639F01FBA20BD0FB61C
:103A1000F894FA9AF99A0FBE08950396272F0E94F8
:103A2000FC1C0E94FB1C252F0E94FC1C242F0C94C4
:103A3000FC1C0196272F0E94FC1C0C94FB1CDC0133
:103A4000CB01FC01F999FECF06C0F2BDE1BDF89AA9
:103A5000319600B40D9241505040B8F70895F89453
:023A6000FFCF96
:103A620005015301000000015101530104540101F9
:103A720051015201000000045801FFFFD5017A16DE
:103A82007F167D16B2167E1601F4F5F6F731333243
:083A9200946697C600000000D5
:00000001FF
